:100000000C9462000C948A000C948A000C948A0070
:100010000C948A000C948A000C948A000C948A0038
:100020000C948A000C948A000C948A000C948A0028
:100030000C948A000C948A000C948A000C948A0018
:100040000C941A080C948A000C948A080C94640886
:100050000C948A000C948A000C948A000C948A00F8
:100060000C948A000C948A000000000023002600F3
:10007000290000000000240027002A0000000000E2
:10008000250028002B0004040404040404040202D4
:100090000202020203030303030301020408102007
:1000A0004080010204081020010204081020000012
:1000B0000008000201000003040700000000000027
:1000C0000000BC0811241FBECFEFD8E0DEBFCDBFBB
:1000D00023E0A2EFB1E001C01D92A332B207E1F725
:1000E00011E0A0E0B1E0E6E2FBE102C005900D9274
:1000F000A23FB107D9F710E0C2E6D0E004C02197D3
:10010000FE010E94990BC136D107C9F70E940D0963
:100110000C94910D0C940000833081F028F4813010
:1001200099F08230A9F008958730A9F08830C9F09D
:100130008430B1F4809180008F7D03C08091800075
:100140008F7780938000089584B58F7784BD08955C
:1001500084B58F7DFBCF8091B0008F778093B00006
:1001600008958091B0008F7DF9CF1F93CF93DF93D7
:10017000282F30E0F901E255FF4F8491F901E6564E
:10018000FF4FD491F901EA57FF4FC491CC23A9F056
:10019000162F81110E948C00EC2FF0E0EE0FFF1F54
:1001A000E458FF4FA591B4918FB7F894EC911111D9
:1001B00008C0D095DE23DC938FBFDF91CF911F91D4
:1001C0000895DE2BF8CFCF93DF9390E0FC01E65645
:1001D000FF4F24918A579F4FFC0184918823C9F0D7
:1001E00090E0880F991FFC01EE58FF4FA591B49144
:1001F000FC01E458FF4FC591D49161110DC09FB728
:10020000F8948C91209582238C93888128232883CD
:100210009FBFDF91CF910895623051F49FB7F8945A
:100220003C91822F809583238C93E8812E2BEFCFF6
:100230008FB7F894EC912E2B2C938FBFEACF3FB75A
:10024000F8948091F7019091F801A091F901B09193
:10025000FA0126B5A89B05C02F3F19F00196A11DF4
:10026000B11D3FBFBA2FA92F982F8827BC01CD0100
:10027000620F711D811D911D42E0660F771F881F5F
:10028000991F4A95D1F708958F929F92AF92BF928E
:10029000CF92DF92EF92FF924B015C010E941F010F
:1002A0006B017C010E941F016C197D098E099F0959
:1002B000683E734081059105A8F321E0821A9108F8
:1002C000A108B10888EEC80E83E0D81EE11CF11C1D
:1002D00081149104A104B10429F7FF90EF90DF90FD
:1002E000CF90BF90AF909F908F9008952FB7F894C4
:1002F0006091F3017091F4018091F5019091F60104
:100300002FBF0895AF92BF92CF92DF92EF92FF92EC
:100310000F931F93CF93DF936C017B018B01040F2D
:10032000151FEB015E01AE18BF08C017D10759F0C9
:100330006991D601ED91FC910190F081E02DC6010B
:100340000995892B79F7C501DF91CF911F910F9105
:10035000FF90EF90DF90CF90BF90AF900895FC0199
:10036000538D448D252F30E0842F90E0821B930B1A
:10037000541710F0CF96089501970895FC01918DC0
:10038000828D981761F0A28DAE0FBF2FB11D5D96C3
:100390008C91928D9F5F9F73928F90E008958FEF65
:1003A0009FEF0895FC01918D828D981731F0828D19
:1003B000E80FF11D858D90E008958FEF9FEF089570
:1003C000FC01918D228D892F90E0805C9F4F821BD4
:1003D00091098F73992708958BEF91E00E94E001B6
:1003E00021E0892B09F420E0822F089580E090E03D
:1003F000892B29F00E94EC0181110C9400000895D2
:10040000FC01A48DA80FB92FB11DA35ABF4F2C9189
:10041000848D90E001968F739927848FA689B78980
:100420002C93A089B1898C91837080648C93938D77
:10043000848D981306C00288F389E02D80818F7D1A
:1004400080830895EF92FF920F931F93CF93DF93D2
:10045000EC0181E0888F9B8D8C8D98131AC0E88900
:10046000F989808185FF15C09FB7F894EE89FF89CF
:100470006083E889F98980818370806480839FBF6D
:1004800081E090E0DF91CF911F910F91FF90EF906D
:100490000895F62E0B8D10E00F5F1F4F0F7311277D
:1004A000E02E8C8D8E110CC00FB607FCFACFE889B8
:1004B000F989808185FFF5CFCE010E940002F1CF3E
:1004C000EB8DEC0FFD2FF11DE35AFF4FF0829FB72C
:1004D000F8940B8FEA89FB8980818062CFCFCF931C
:1004E000DF93EC01888D8823B9F0AA89BB89E8895C
:1004F000F9898C9185FD03C0808186FD0DC00FB602
:1005000007FCF7CF8C9185FFF2CF808185FFEDCF7F
:10051000CE010E940002E9CFDF91CF9108950895A6
:100520008F929F92AF92BF92CF92DF92EF92FF9203
:10053000CF93DF93EC016B010E9476014B015C01CC
:10054000F12CE12C8D819E81DC01ED91FC910284E6
:10055000F385E02D099597FF0DC00E94760168197B
:1005600079098A099B096C157D058E059F0550F355
:100570008FEF9FEFDF91CF91FF90EF90DF90CF90C3
:10058000BF90AF909F908F900895FC01238134819C
:100590002627022E2295207F2025032E322F2295FA
:1005A0002F700226269532272327220F220F220F93
:1005B00020253483238308952F923F924F925F9298
:1005C0006F927F928F929F92AF92BF92CF92DF9263
:1005D000EF92FF920F931F93CF93DF93CDB7DEB7C8
:1005E0002A970FB6F894DEBF0FBECDBF9A878987D2
:1005F0005B01290137011A01200E311E3A8219824E
:1006000088248A94982C9A01260F371F3E832D83C5
:10061000C801840D951D98878F83A985BA85189682
:100620008C91B981B81708F056C1E985FA85948292
:10063000838285819681DC01ED91FC910190F081AE
:10064000E02D6FEF09956FEF89859A850E94C502AD
:10065000E985FA8585819681DC01ED91FC91019017
:10066000F081E02DA985BA856C910995E985FA8517
:100670006081CF010E94C502A985BA8515968D912A
:100680009C91DC01ED91FC910190F081E02D6A815B
:1006900009956A8189859A850E94C502E985FA854E
:1006A00085819681DC01ED91FC910190F081E02D36
:1006B000622D0995622D89859A850E94C502850162
:1006C000E985FA8585819681D8016D918D01DC01DE
:1006D000ED91FC910190F081E02D0995F8013197A1
:1006E000608189859A850E94C502ED81FE81E017AF
:1006F000F10731F78201A985BA8515968D919C91F4
:10070000DC01ED91FC910190F081E02D2F81388585
:100710002017310761F0D8016D918D010995F8011D
:100720003197608189859A850E94C502E4CFA985A9
:10073000BA8514966C910995E985FA85858196812B
:10074000DC01ED91FC910190F081E02DA985BA8545
:1007500013966C91099568EC70E089859A850E94E2
:1007600090028F3F910509F092C0E985FA85948245
:1007700083826FEFCF010E94C50265E070E089853A
:100780009A850E949002A985BA856C91681719060E
:1007900009F07DC0CD010E94C5026AE070E0898544
:1007A0009A850E9490027C0197FD71C0682F89850F
:1007B0009A850E94C5026AE070E089859A850E9448
:1007C00090028C0197FD63C0682F89859A850E94ED
:1007D000C502EC821B82EB81FC810E0F1F1FF12CE6
:1007E000E12C65E070E089859A850E151F05A1F062
:1007F000EC14FD0489F00E94900297FD09C0F301FA
:10080000EE0DFF1D8083682F89859A850E94C502A1
:10081000FFEFEF1AFF0AE5CF0E9490027C0197FDDF
:1008200036C065E070E089859A850E94900297FD48
:100830002EC0FE2CEE248E0D9F1DA985BA85139621
:100840002D913C9114978217930709F58C918F5F36
:100850008C93C801C016D10608F4C6012A960FB6BB
:10086000F894DEBF0FBECDBFDF91CF911F910F91E6
:10087000FF90EF90DF90CF90BF90AF909F908F90C0
:100880007F906F905F904F903F902F900895B98127
:10089000BF5FB98364E670E080E090E00E944401AD
:1008A000E985FA8585819681DC01ED91FC910084D2
:1008B000F185E02D0995181619060CF0AECEE985E4
:1008C000FA8585819681DC01ED91FC910284F385A6
:1008D000E02D0995E5CF8FEF9FEFC0CFAF92BF928C
:1008E000CF92DF92EF92FF920F931F93CF93DF93FC
:1008F00000D01F92CDB7DEB7FC01228921111FC0A5
:100900005C01138A8FE4898380E48B8386858A83E4
:100910007F01F4E1EF0EF11C80E4C82ED12C10E031
:1009200000E030E020E043E050E0BE016F5F7F4F29
:10093000F501848595850E94DC02F501828B0F907C
:100940000F900F90DF91CF911F910F91FF90EF903B
:10095000DF90CF90BF90AF900895CF93DF93EC01DD
:100960000E946E048A89882341F08B89C80FD11DAB
:100970008C8990E0DF91CF9108958FEF9FEFFACFB0
:10098000CF93DF93EC010E946E048A89882369F07B
:1009900081508A8B8B8991E0980F9B8BC80FD11D5A
:1009A0008C8990E0DF91CF9108958FEF9FEFFACF80
:1009B000CF93DF93EC010E946E048A8990E0DF916F
:1009C000CF910895AF92BF92CF92DF92EF92FF92B4
:1009D0000F931F93CF93DF9300D0CDB7DEB75C01A9
:1009E000FC0181898823A9F087E7898386858A832A
:1009F000D12CC12CF12CE12C10E000E030E020E003
:100A000042E050E0BE016F5F7F4F848595850E9474
:100A1000DC02F501118A0F900F90DF91CF911F91A9
:100A20000F91FF90EF90DF90CF90BF90AF9008951F
:100A3000CF92DF92EF92FF920F931F93CF93DF93AA
:100A400000D01F92CDB7DEB729E42983FC012685AB
:100A50002A836B83D12CC12CF12CE12C10E000E017
:100A600030E020E043E050E0BE016F5F7F4F8485BF
:100A700095850E94DC0281E090E00F900F900F902E
:100A8000DF91CF911F910F91FF90EF90DF90CF906A
:100A900008950F931F93CF93DF93EC012B8130E0E8
:100AA000F901E255FF4F8491F901E656FF4F049199
:100AB000F901EA57FF4F14911123F1F081110E94BF
:100AC0008C00E12FF0E0EE0FFF1FE859FF4FA591DA
:100AD000B491EC910E2331E020E009F430E0832F53
:100AE000922F2A81223010F421E082278170DF9139
:100AF000CF911F910F91089590E080E0F2CF0F9376
:100B00001F93CF93DF93EC01888199818130910508
:100B100081F130F0029709F474C01982188224C060
:100B20008C859D85892B89F00E9476010A891B8915
:100B30002C893D89601B710B820B930B683E7340BF
:100B40008105910510F01D861C86CE010E94490585
:100B5000882351F00E9476016E877F87888B998B5E
:100B600081E090E099838883DF91CF911F910F916D
:100B700008950E9476010E851F8528893989AB0169
:100B8000BC01401B510B620B730B8E819F81B0E047
:100B9000A0E0481759076A077B0730F3CE010E948F
:100BA0004905882309F4B9CF1B861A868E8D8E7F5E
:100BB00086608E8F8C859D85892B31F40E9476010D
:100BC0006A8B7B8B8C8B9D8B888599850196998709
:100BD00088878C859D8501969D878C87EE89FF8906
:100BE000309711F0CE0109958C859D85029730F0E4
:100BF000EC8DFD8D309711F0CE01099582E090E0EB
:100C0000B1CFCE010E9449058823C9F10E94760127
:100C10000E851F8528893989AB01BC01401B510B0A
:100C2000620B730B8C819D81B0E0A0E048175907DF
:100C30006A077B0708F498CF0E9476010E851F850E
:100C400028893989DC01CB01801B910BA20BB30BE6
:100C50002A853B85820F931F9B878A870E94760196
:100C60006E877F87888B998BE88DF98D309711F08F
:100C7000CE0109958E8D8B7F81608E8F75CFEA8D29
:100C8000FB8D309709F449CFCE01099546CF90E00E
:100C900080E00895FC0101900020E9F73197AF0151
:100CA000481B590BBC018BEF91E00C9482010C9412
:100CB0004A06CF92DF92EF92FF920F931F93CF934A
:100CC000DF93CDB7DEB7A1970FB6F894DEBF0FBEA6
:100CD000CDBF9C0150E040E019A28E010F5D1F4F77
:100CE0008AE0C82ED12CE12CF12CCA01B901A70150
:100CF00096010E94770B605DF80162938F012115C8
:100D000031054105510589F790E080E0309719F0F1
:100D1000CF010E944A06A1960FB6F894DEBF0FBE1F
:100D2000CDBFDF91CF911F910F91FF90EF90DF909A
:100D3000CF900895CF93DF930E945906EC018AE289
:100D400091E00E944A068C0F9D1FDF91CF9108957C
:100D5000CF93DF93EC0161E085E00E94B5008091C4
:100D6000AB029091AC0201970E9459068DE291E08E
:100D70000E9457068091CA029091CB0201970E946F
:100D800059068DE291E00E9457068091E902909108
:100D9000EA0201970E9459068DE291E00E945706EF
:100DA0008885998501970E949A0668EE73E080E035
:100DB00090E00E94440160E085E0DF91CF910C94C7
:100DC000B500CF93DF93EC0161E084E00E94B500B1
:100DD0008091AB029091AC0201970E9459068DE27E
:100DE00091E00E9457068091CA029091CB02019730
:100DF0000E9459068DE291E00E94570688859985E8
:100E000001970E9459068DE291E00E945706809159
:100E100008039091090301970E949A0668EE73E017
:100E200080E090E00E94440160E084E0DF91CF9197
:100E30000C94B500CF93DF93EC0161E083E00E9456
:100E4000B5008091AB029091AC0201970E945906C7
:100E50008DE291E00E9457068885998501970E944E
:100E600059068DE291E00E9457068091E902909127
:100E7000EA0201970E9459068DE291E00E9457060E
:100E8000809108039091090301970E949A0668EEE9
:100E900073E080E090E00E94440160E083E0DF9135
:100EA000CF910C94B500CF93DF93EC0161E082E029
:100EB0000E94B5008885998501970E9459068DE2A8
:100EC00091E00E9457068091CA029091CB0201974F
:100ED0000E9459068DE291E00E9457068091E90236
:100EE0009091EA0201970E9459068DE291E00E94DA
:100EF0005706809108039091090301970E949A0672
:100F000068EE73E080E090E00E94440160E082E0DF
:100F1000DF91CF910C94B5001F93CF93DF93EC0139
:100F2000162F1982188262E0812F0E94E300198235
:100F300018821E861F86188A198A1A8A1B8A1C8A9A
:100F40001D8A1B8381E08A8388E893E19D838C83DB
:100F500084E190E09F838E83198618861B861A860B
:100F60001D861C861F8A1E8A198E188E1B8E1A8E4D
:100F70001D8E1C8E1E8EDF91CF911F910895FC0156
:100F800080819181009711F00C943B0C08950F9390
:100F90001F93CF93DF93EC0188819981009759F0DB
:100FA0002A813B812617370730F081E0DF91CF910E
:100FB0001F910F9108958B016F5F7F4F0E94C40CAA
:100FC000009759F0998388831B830A832C813D8184
:100FD000232B59F7FC011082E8CF80E0E7CFEF9296
:100FE000FF920F931F93CF93DF93EC017B018A0154
:100FF000BA010E94C70728813981811114C02115C7
:10100000310519F0C9010E943B0C198218821D821A
:101010001C821B821A82CE01DF91CF911F910F910A
:10102000FF90EF9008951D830C83B701C9010E94C2
:101030008A0DF1CF1F920F920FB60F9211242F93AA
:101040003F938F939F93AF93BF938091F3019091C0
:10105000F401A091F501B091F6013091F20123E085
:10106000230F2D3758F50196A11DB11D2093F201D4
:101070008093F3019093F401A093F501B093F601EE
:101080008091F7019091F801A091F901B091FA01D6
:101090000196A11DB11D8093F7019093F801A093D3
:1010A000F901B093FA01BF91AF919F918F913F9158
:1010B0002F910F900FBE0F901F90189526E8230FC9
:1010C0000296A11DB11DD2CF1F920F920FB60F92A3
:1010D00011242F933F934F935F936F937F938F933D
:1010E0009F93AF93BF93EF93FF938BEF91E00E9499
:1010F0000002FF91EF91BF91AF919F918F917F91EE
:101100006F915F914F913F912F910F900FBE0F9074
:101110001F9018951F920F920FB60F9211242F93C4
:101120008F939F93EF93FF93E0910B02F0910C024A
:101130008081E0911102F091120282FD1BC090812A
:10114000809114028F5F8F7320911502821741F0F6
:10115000E0911402F0E0E550FE4F958F8093140269
:10116000FF91EF919F918F912F910F900FBE0F9054
:101170001F9018958081F4CFEBEFF1E0138212827B
:1011800088EE93E0A0E0B0E084839583A683B783E4
:101190008CE191E09183808385EC90E09587848752
:1011A00084EC90E09787868780EC90E0918B808B31
:1011B00081EC90E0938B828B82EC90E0958B848B1A
:1011C00086EC90E0978B868B118E128E138E148E88
:1011D000A8E9B2E01C921696FC93EE931597179629
:1011E0001C92179718961C9218971A96FC93EE93D8
:1011F000199763E180E093E00E948C0762E181EE41
:1012000092E00E948C0761E182EC92E00E948C07E0
:1012100060E183EA92E00C948C07CF93DF93CDB723
:10122000DEB7CC55D1090FB6F894DEBF0FBECDBFE7
:10123000789484B5826084BD84B5816084BD85B5B1
:10124000826085BD85B5816085BD80916E008160BD
:1012500080936E0010928100809181008260809363
:101260008100809181008160809381008091800065
:101270008160809380008091B10084608093B10090
:101280008091B00081608093B00080917A0084608A
:1012900080937A0080917A00826080937A008091B6
:1012A0007A00816080937A0080917A0080688093D0
:1012B0007A001092C100E0910B02F0910C0282E0E2
:1012C0008083E0910702F09108021082E091090208
:1012D000F0910A028FEC808310921302E0910F02CA
:1012E000F091100286E08083E0910D02F0910E02F1
:1012F000808180618083E0910D02F0910E028081F7
:1013000088608083E0910D02F0910E0280818068F8
:101310008083E0910D02F0910E0280818F7D8083A9
:1013200080E391E00E944A068AE291E00E944A0628
:101330008BE491E00E9457068DE291E00E945706EF
:1013400080E591E00E9457068DE291E00E945706E9
:1013500085E591E00E9457068DE291E00E945706D4
:1013600089E591E00E944A068AE291E00E944A06DD
:1013700084E690E090930703809306039093E8023D
:101380008093E7029093C9028093C8029093AA02C7
:101390008093A90288EA96E090931703809316033E
:1013A00081EE96E09093F8028093F7028AE197E04D
:1013B0009093D9028093D80283E597E09093BA0284
:1013C0008093B90261E085E00E94E30061E084E07F
:1013D0000E94E30061E083E00E94E30061E082E0BC
:1013E0000E94E30058EE852E53E0952EA12CB12CDF
:1013F0006AE0662E61E0762E78E9272E72E0372EBD
:10140000E0E04E2EE0E05E2E1C821B828D829E82EA
:10141000AF82B8867A8269823E862D861A8A1B8AB6
:101420001C8A67961FAE1EAE679769961FAE1EAEEA
:1014300069976B961FAE1EAE6B974FE050E06DE55F
:1014400071E0CE018B5A9F4F0E94EF07CE010196AB
:101450000E94E20486E090E00E949F0B8C01FC0158
:1014600011821082138212821582148267966EADE9
:101470007FAD67976115710531F06B964EAD5FAD2D
:101480006B970E94EF07198B088BCE018B5A9F4FE9
:101490000E94BF0767961FAE1EAE679769961FAE84
:1014A0001EAE69976B961FAE1EAE6B9741E850E07B
:1014B0006DE671E0CE018B5A9F4F0E94EF070889BD
:1014C0001989F801E480F580FFEFEF1AFF0AB701F0
:1014D000C8010E94C707882371F0F801208131817B
:1014E000848195816FEE71E0820F931F0E948A0DB7
:1014F000F801F582E4826796CEACDFAC6797C11441
:10150000D10409F16B96EEACFFAC6B97E114F104DA
:10151000D1F008891989F80184819581E80EF91EB6
:10152000B701C8010E94C707882369F0F80120812C
:10153000318184819581B601820F931F0E948A0DAB
:10154000F801F582E482CE018B5A9F4F0E94BF07BB
:10155000F2E56C96FFAF6C97E889F98904811581F3
:101560002081318142E0C42ED12CCE018B5A9F4F75
:101570007C0141E050E0BE01655A7F4F8D859E851C
:101580000E94DC0267968FAD67978F87088919895B
:101590000115110531F0C8010E94BF07C8010E9462
:1015A0003B0C198A188A66968FAD6697811102C026
:1015B00091E09A8BE2E76696EFAF66978F85679624
:1015C0008FAF6797CC24C394D12CCE01855A9F4FFF
:1015D0007C0110E000E030E020E042E050E0BE019D
:1015E0006B5A7F4F8D859E850E94DC026C968FAD75
:1015F0006C97813039F464E670E080E090E00E94FE
:101600004401D8CF97E56C969FAF6C978F856D9608
:101610008FAF6D9782E0C82ED12CFE01EB5AFF4FA1
:101620007F0110E000E030E020E042E050E0BE0149
:10163000655A7F4F8D859E850E94DC027A82698281
:10164000CE0101960E94E20480E093E00E947F05B3
:1016500081EE92E00E947F0582EC92E00E947F057D
:1016600083EA92E00E947F054114510409F4CCCE34
:101670000E94EC01882309F4C7CE0E940000C4CE6A
:101680002F923F924F925F926F927F928F929F9292
:10169000AF92BF92CF92DF92EF92FF920F931F9380
:1016A000CF93DF93CDB7DEB7CA1BDB0B0FB6F89431
:1016B000DEBF0FBECDBF09942A88398848885F8471
:1016C0006E847D848C849B84AA84B984C884DF80E2
:1016D000EE80FD800C811B81AA81B981CE0FD11DC6
:1016E0000FB6F894DEBF0FBECDBFED010895A1E2A5
:1016F0001A2EAA1BBB1BFD010DC0AA1FBB1FEE1F8C
:10170000FF1FA217B307E407F50720F0A21BB30BD6
:10171000E40BF50B661F771F881F991F1A9469F752
:1017200060957095809590959B01AC01BD01CF01AE
:101730000895EE0FFF1F0590F491E02D09940F938B
:101740001F93CF93DF938230910510F482E090E0F5
:10175000E0912103F091220330E020E0B0E0A0E02E
:10176000309799F42115310509F44AC0281B390B2B
:1017700024303105D8F58A819B816115710589F185
:10178000FB0193838283FE0111C04081518102815C
:10179000138148175907E0F04817590799F4109733
:1017A00061F012960C93129713961C933296CF0108
:1017B000DF91CF911F910F91089500932103109312
:1017C0002203F4CF2115310551F04217530738F0A9
:1017D000A901DB019A01BD01DF01F801C1CFEF01D1
:1017E000F9CF9093220380932103CDCFFE01E20F26
:1017F000F31F819391932250310939832883D7CFE6
:1018000020911F0330912003232B41F420910201EA
:10181000309103013093200320931F032091000196
:10182000309101012115310541F42DB73EB74091AA
:10183000040150910501241B350BE0911F03F09129
:101840002003E217F307A0F42E1B3F0B28173907DC
:1018500078F0AC014E5F5F4F2417350748F04E0F0C
:101860005F1F5093200340931F03819391939FCF59
:10187000F0E0E0E09CCFCF93DF930097E9F0FC012C
:10188000329713821282A0912103B0912203ED01BD
:1018900030E020E01097A1F420813181820F931F66
:1018A00020911F03309120032817390709F061C0E8
:1018B000F0932003E0931F03DF91CF910895EA0195
:1018C000CE17DF07E8F54A815B819E01411551057E
:1018D000B1F7E901FB83EA8349915991C40FD51F00
:1018E000EC17FD0761F4808191810296840F951FAA
:1018F000E90199838883828193819B838A83F0E0C5
:10190000E0E012968D919C9113970097B9F52D9177
:101910003C911197CD010296820F931F20911F03D6
:10192000309120032817390739F6309751F5109276
:10193000220310922103B0932003A0931F03BCCF76
:10194000D383C28340815181840F951FC817D90763
:1019500061F44E5F5F4F88819981480F591F518311
:1019600040838A819B81938382832115310509F00D
:10197000B0CFF0932203E09321039ECFFD01DC0161
:10198000C0CF13821282D7CFB0E0A0E0EAECFCE037
:101990000C94420B8C01009751F4CB010E949F0BD9
:1019A0008C01C801CDB7DEB7E0E10C945E0BFC0101
:1019B000E60FF71F9C0122503109E217F30708F4E4
:1019C0009DC0D901CD91DC911197C617D70798F02A
:1019D000C530D10530F3CE0104978617970708F379
:1019E000C61BD70B2297C193D1936D937C93CF01E4
:1019F0000E943B0CD6CF5B01AC1ABD0A4C018C0E89
:101A00009D1EA0912103B0912203512C412CF12C59
:101A1000E12C109731F580911F03909120038815D8
:101A2000990509F05CC04616570608F058C0809129
:101A3000000190910101009741F48DB79EB740914C
:101A4000040150910501841B950BE817F90708F074
:101A500055C0F0932003E0931F03F9017183608365
:101A6000A0CF8D919C91119712966C90129713961E
:101A70007C901397A815B90559F56C0142E0C40E86
:101A8000D11CCA14DB0420F1AC014A195B09DA014C
:101A90001296159780F06282738251834083D90138
:101AA0006D937C93E114F10471F0D7011396FC93CC
:101AB000EE93129776CF22968C0F9D1FF90191839A
:101AC0008083F301EFCFF0932203E093210369CFEA
:101AD0004816590608F42C017D01D3019ACFCB0199
:101AE0000E949F0B7C01009749F0AE01B8010E9453
:101AF000810DC8010E943B0C870153CF10E000E02C
:101B000050CFFB01DC0102C001900D9241505040CA
:101B1000D8F70895FB01DC0101900D920020E1F758
:061B20000895F894FFCFC8
:101B2600000023038000000000001805820147061C
:101B36008F02D804C004AD04000000002202820116
:101B4600AF016F02E001BE01D2010D0A002C200098
:101B5600536520696E696369616C697A6F20656C8B
:101B66002070726F6772616D613A005665727920F6
:101B7600476F6F64004D656800426164002F75739E
:101B8600722F62696E2F707974686F6E002F686F9E
:101B96006D652F616E647265736E7631322F4465A2
:101BA600736B746F702F416E647265732F53656D1E
:101BB60065737472655F41637475616C2F54435528
:101BC6002F4465736172726F6C6C6F2D64652D7036
:101BD600726F746F7469706F2D64652D63616A69C5
:101BE60074612D64652D7361746973666163692D13
:101BF6006E2F427574746F6E732F627574746F6E88
:101C0600732F6461746173617665722E707900FE5C
:021C16000000CC
:00000001FF
